{"abi":[{"type":"constructor","inputs":[{"name":"uri","type":"string","internalType":"string"}],"stateMutability":"nonpayable"},{"type":"function","name":"AI_ORACLE_ROLE","inputs":[],"outputs":[{"name":"","type":"bytes32","internalType":"bytes32"}],"stateMutability":"view"},{"type":"function","name":"DEFAULT_ADMIN_ROLE","inputs":[],"outputs":[{"name":"","type":"bytes32","internalType":"bytes32"}],"stateMutability":"view"},{"type":"function","name":"DISTRIBUTOR_ROLE","inputs":[],"outputs":[{"name":"","type":"bytes32","internalType":"bytes32"}],"stateMutability":"view"},{"type":"function","name":"MANUFACTURER_ROLE","inputs":[],"outputs":[{"name":"","type":"bytes32","internalType":"bytes32"}],"stateMutability":"view"},{"type":"function","name":"PHARMACY_ROLE","inputs":[],"outputs":[{"name":"","type":"bytes32","internalType":"bytes32"}],"stateMutability":"view"},{"type":"function","name":"balanceOf","inputs":[{"name":"account","type":"address","internalType":"address"},{"name":"id","type":"uint256","internalType":"uint256"}],"outputs":[{"name":"","type":"uint256","internalType":"uint256"}],"stateMutability":"view"},{"type":"function","name":"balanceOfBatch","inputs":[{"name":"accounts","type":"address[]","internalType":"address[]"},{"name":"ids","type":"uint256[]","internalType":"uint256[]"}],"outputs":[{"name":"","type":"uint256[]","internalType":"uint256[]"}],"stateMutability":"view"},{"type":"function","name":"flagAndFreezeProduct","inputs":[{"name":"id","type":"uint256","internalType":"uint256"},{"name":"reason","type":"string","internalType":"string"},{"name":"riskScore","type":"uint8","internalType":"uint8"}],"outputs":[],"stateMutability":"nonpayable"},{"type":"function","name":"getRoleAdmin","inputs":[{"name":"role","type":"bytes32","internalType":"bytes32"}],"outputs":[{"name":"","type":"bytes32","internalType":"bytes32"}],"stateMutability":"view"},{"type":"function","name":"grantRole","inputs":[{"name":"role","type":"bytes32","internalType":"bytes32"},{"name":"account","type":"address","internalType":"address"}],"outputs":[],"stateMutability":"nonpayable"},{"type":"function","name":"hasRole","inputs":[{"name":"role","type":"bytes32","internalType":"bytes32"},{"name":"account","type":"address","internalType":"address"}],"outputs":[{"name":"","type":"bool","internalType":"bool"}],"stateMutability":"view"},{"type":"function","name":"isApprovedForAll","inputs":[{"name":"account","type":"address","internalType":"address"},{"name":"operator","type":"address","internalType":"address"}],"outputs":[{"name":"","type":"bool","internalType":"bool"}],"stateMutability":"view"},{"type":"function","name":"itemRegistry","inputs":[{"name":"","type":"uint256","internalType":"uint256"}],"outputs":[{"name":"name","type":"string","internalType":"string"},{"name":"batchNumber","type":"string","internalType":"string"},{"name":"productionDate","type":"uint256","internalType":"uint256"},{"name":"expiryDate","type":"uint256","internalType":"uint256"},{"name":"isFrozen","type":"bool","internalType":"bool"}],"stateMutability":"view"},{"type":"function","name":"mintProduct","inputs":[{"name":"to","type":"address","internalType":"address"},{"name":"id","type":"uint256","internalType":"uint256"},{"name":"amount","type":"uint256","internalType":"uint256"},{"name":"name","type":"string","internalType":"string"},{"name":"batchNumber","type":"string","internalType":"string"},{"name":"expiryDate","type":"uint256","internalType":"uint256"},{"name":"data","type":"bytes","internalType":"bytes"}],"outputs":[],"stateMutability":"nonpayable"},{"type":"function","name":"registerAIOracle","inputs":[{"name":"a","type":"address","internalType":"address"}],"outputs":[],"stateMutability":"nonpayable"},{"type":"function","name":"registerDistributor","inputs":[{"name":"a","type":"address","internalType":"address"}],"outputs":[],"stateMutability":"nonpayable"},{"type":"function","name":"registerManufacturer","inputs":[{"name":"a","type":"address","internalType":"address"}],"outputs":[],"stateMutability":"nonpayable"},{"type":"function","name":"registerPharmacy","inputs":[{"name":"a","type":"address","internalType":"address"}],"outputs":[],"stateMutability":"nonpayable"},{"type":"function","name":"renounceRole","inputs":[{"name":"role","type":"bytes32","internalType":"bytes32"},{"name":"callerConfirmation","type":"address","internalType":"address"}],"outputs":[],"stateMutability":"nonpayable"},{"type":"function","name":"revokeRole","inputs":[{"name":"role","type":"bytes32","internalType":"bytes32"},{"name":"account","type":"address","internalType":"address"}],"outputs":[],"stateMutability":"nonpayable"},{"type":"function","name":"safeBatchTransferFrom","inputs":[{"name":"from","type":"address","internalType":"address"},{"name":"to","type":"address","internalType":"address"},{"name":"ids","type":"uint256[]","internalType":"uint256[]"},{"name":"values","type":"uint256[]","internalType":"uint256[]"},{"name":"data","type":"bytes","internalType":"bytes"}],"outputs":[],"stateMutability":"nonpayable"},{"type":"function","name":"safeTransferFrom","inputs":[{"name":"from","type":"address","internalType":"address"},{"name":"to","type":"address","internalType":"address"},{"name":"id","type":"uint256","internalType":"uint256"},{"name":"value","type":"uint256","internalType":"uint256"},{"name":"data","type":"bytes","internalType":"bytes"}],"outputs":[],"stateMutability":"nonpayable"},{"type":"function","name":"safeTransferItem","inputs":[{"name":"from","type":"address","internalType":"address"},{"name":"to","type":"address","internalType":"address"},{"name":"id","type":"uint256","internalType":"uint256"},{"name":"amount","type":"uint256","internalType":"uint256"},{"name":"data","type":"bytes","internalType":"bytes"}],"outputs":[],"stateMutability":"nonpayable"},{"type":"function","name":"setApprovalForAll","inputs":[{"name":"operator","type":"address","internalType":"address"},{"name":"approved","type":"bool","internalType":"bool"}],"outputs":[],"stateMutability":"nonpayable"},{"type":"function","name":"supportsInterface","inputs":[{"name":"interfaceId","type":"bytes4","internalType":"bytes4"}],"outputs":[{"name":"","type":"bool","internalType":"bool"}],"stateMutability":"view"},{"type":"function","name":"unfreezeProduct","inputs":[{"name":"id","type":"uint256","internalType":"uint256"}],"outputs":[],"stateMutability":"nonpayable"},{"type":"function","name":"uri","inputs":[{"name":"","type":"uint256","internalType":"uint256"}],"outputs":[{"name":"","type":"string","internalType":"string"}],"stateMutability":"view"},{"type":"event","name":"AnomalousActivityFlagged","inputs":[{"name":"tokenId","type":"uint256","indexed":true,"internalType":"uint256"},{"name":"reason","type":"string","indexed":false,"internalType":"string"},{"name":"riskScore","type":"uint8","indexed":false,"internalType":"uint8"}],"anonymous":false},{"type":"event","name":"ApprovalForAll","inputs":[{"name":"account","type":"address","indexed":true,"internalType":"address"},{"name":"operator","type":"address","indexed":true,"internalType":"address"},{"name":"approved","type":"bool","indexed":false,"internalType":"bool"}],"anonymous":false},{"type":"event","name":"ItemTransferred","inputs":[{"name":"tokenId","type":"uint256","indexed":true,"internalType":"uint256"},{"name":"from","type":"address","indexed":true,"internalType":"address"},{"name":"to","type":"address","indexed":true,"internalType":"address"},{"name":"quantity","type":"uint256","indexed":false,"internalType":"uint256"},{"name":"timestamp","type":"uint256","indexed":false,"internalType":"uint256"}],"anonymous":false},{"type":"event","name":"RoleAdminChanged","inputs":[{"name":"role","type":"bytes32","indexed":true,"internalType":"bytes32"},{"name":"previousAdminRole","type":"bytes32","indexed":true,"internalType":"bytes32"},{"name":"newAdminRole","type":"bytes32","indexed":true,"internalType":"bytes32"}],"anonymous":false},{"type":"event","name":"RoleGranted","inputs":[{"name":"role","type":"bytes32","indexed":true,"internalType":"bytes32"},{"name":"account","type":"address","indexed":true,"internalType":"address"},{"name":"sender","type":"address","indexed":true,"internalType":"address"}],"anonymous":false},{"type":"event","name":"RoleRevoked","inputs":[{"name":"role","type":"bytes32","indexed":true,"internalType":"bytes32"},{"name":"account","type":"address","indexed":true,"internalType":"address"},{"name":"sender","type":"address","indexed":true,"internalType":"address"}],"anonymous":false},{"type":"event","name":"TransferBatch","inputs":[{"name":"operator","type":"address","indexed":true,"internalType":"address"},{"name":"from","type":"address","indexed":true,"internalType":"address"},{"name":"to","type":"address","indexed":true,"internalType":"address"},{"name":"ids","type":"uint256[]","indexed":false,"internalType":"uint256[]"},{"name":"values","type":"uint256[]","indexed":false,"internalType":"uint256[]"}],"anonymous":false},{"type":"event","name":"TransferSingle","inputs":[{"name":"operator","type":"address","indexed":true,"internalType":"address"},{"name":"from","type":"address","indexed":true,"internalType":"address"},{"name":"to","type":"address","indexed":true,"internalType":"address"},{"name":"id","type":"uint256","indexed":false,"internalType":"uint256"},{"name":"value","type":"uint256","indexed":false,"internalType":"uint256"}],"anonymous":false},{"type":"event","name":"URI","inputs":[{"name":"value","type":"string","indexed":false,"internalType":"string"},{"name":"id","type":"uint256","indexed":true,"internalType":"uint256"}],"anonymous":false},{"type":"error","name":"AccessControlBadConfirmation","inputs":[]},{"type":"error","name":"AccessControlUnauthorizedAccount","inputs":[{"name":"account","type":"address","internalType":"address"},{"name":"neededRole","type":"bytes32","internalType":"bytes32"}]},{"type":"error","name":"ERC1155InsufficientBalance","inputs":[{"name":"sender","type":"address","internalType":"address"},{"name":"balance","type":"uint256","internalType":"uint256"},{"name":"needed","type":"uint256","internalType":"uint256"},{"name":"tokenId","type":"uint256","internalType":"uint256"}]},{"type":"error","name":"ERC1155InvalidApprover","inputs":[{"name":"approver","type":"address","internalType":"address"}]},{"type":"error","name":"ERC1155InvalidArrayLength","inputs":[{"name":"idsLength","type":"uint256","internalType":"uint256"},{"name":"valuesLength","type":"uint256","internalType":"uint256"}]},{"type":"error","name":"ERC1155InvalidOperator","inputs":[{"name":"operator","type":"address","internalType":"address"}]},{"type":"error","name":"ERC1155InvalidReceiver","inputs":[{"name":"receiver","type":"address","internalType":"address"}]},{"type":"error","name":"ERC1155InvalidSender","inputs":[{"name":"sender","type":"address","internalType":"address"}]},{"type":"error","name":"ERC1155MissingApprovalForAll","inputs":[{"name":"operator","type":"address","internalType":"address"},{"name":"owner","type":"address","internalType":"address"}]}],"bytecode":{"object":"0x608060405234801562000010575f80fd5b5060405162003af038038062003af0833981810160405281019062000036919062000366565b8062000048816200006560201b60201c565b506200005d5f801b336200007a60201b60201c565b5050620006d0565b8060029081620000769190620005ec565b5050565b5f6200008d83836200017660201b60201c565b6200016c57600160035f8581526020019081526020015f205f015f8473ffffffffffffffffffffffffffffffffffffffff1673ffffffffffffffffffffffffffffffffffffffff1681526020019081526020015f205f6101000a81548160ff02191690831515021790555062000108620001da60201b60201c565b73ffffffffffffffffffffffffffffffffffffffff168273ffffffffffffffffffffffffffffffffffffffff16847f2f8788117e7eff1d82e926ec794901d17c78024a50270940304540a733656f0d60405160405180910390a46001905062000170565b5f90505b92915050565b5f60035f8481526020019081526020015f205f015f8373ffffffffffffffffffffffffffffffffffffffff1673ffffffffffffffffffffffffffffffffffffffff1681526020019081526020015f205f9054906101000a900460ff16905092915050565b5f33905090565b5f604051905090565b5f80fd5b5f80fd5b5f80fd5b5f80fd5b5f601f19601f8301169050919050565b7f4e487b71000000000000000000000000000000000000000000000000000000005f52604160045260245ffd5b6200024282620001fa565b810181811067ffffffffffffffff821117156200026457620002636200020a565b5b80604052505050565b5f62000278620001e1565b905062000286828262000237565b919050565b5f67ffffffffffffffff821115620002a857620002a76200020a565b5b620002b382620001fa565b9050602081019050919050565b5f5b83811015620002df578082015181840152602081019050620002c2565b5f8484015250505050565b5f62000300620002fa846200028b565b6200026d565b9050828152602081018484840111156200031f576200031e620001f6565b5b6200032c848285620002c0565b509392505050565b5f82601f8301126200034b576200034a620001f2565b5b81516200035d848260208601620002ea565b91505092915050565b5f602082840312156200037e576200037d620001ea565b5b5f82015167ffffffffffffffff8111156200039e576200039d620001ee565b5b620003ac8482850162000334565b91505092915050565b5f81519050919050565b7f4e487b71000000000000000000000000000000000000000000000000000000005f52602260045260245ffd5b5f60028204905060018216806200040457607f821691505b6020821081036200041a5762000419620003bf565b5b50919050565b5f819050815f5260205f209050919050565b5f6020601f8301049050919050565b5f82821b905092915050565b5f600883026200047e7fffffffffffffffffffffffffffffffffffffffffffffffffffffffffffffffff8262000441565b6200048a868362000441565b95508019841693508086168417925050509392505050565b5f819050919050565b5f819050919050565b5f620004d4620004ce620004c884620004a2565b620004ab565b620004a2565b9050919050565b5f819050919050565b620004ef83620004b4565b62000507620004fe82620004db565b8484546200044d565b825550505050565b5f90565b6200051d6200050f565b6200052a818484620004e4565b505050565b5b818110156200055157620005455f8262000513565b60018101905062000530565b5050565b601f821115620005a0576200056a8162000420565b620005758462000432565b8101602085101562000585578190505b6200059d620005948562000432565b8301826200052f565b50505b505050565b5f82821c905092915050565b5f620005c25f1984600802620005a5565b1980831691505092915050565b5f620005dc8383620005b1565b9150826002028217905092915050565b620005f782620003b5565b67ffffffffffffffff8111156200061357620006126200020a565b5b6200061f8254620003ec565b6200062c82828562000555565b5f60209050601f83116001811462000662575f84156200064d578287015190505b620006598582620005cf565b865550620006c8565b601f198416620006728662000420565b5f5b828110156200069b5784890151825560018201915060208501945060208101905062000674565b86831015620006bb5784890151620006b7601f891682620005b1565b8355505b6001600288020188555050505b505050505050565b61341280620006de5f395ff3fe608060405234801561000f575f80fd5b50600436106101a6575f3560e01c806391d14854116100f7578063d52e002711610095578063e985e9c51161006f578063e985e9c5146104c4578063f0bd87cc146104f4578063f0c58ea714610512578063f242432a14610530576101a6565b8063d52e002714610470578063d547741f1461048c578063e6831f92146104a8576101a6565b8063a217fddf116100d1578063a217fddf146103fc578063a22cb4651461041a578063c601f7af14610436578063c968d8d514610454576101a6565b806391d1485414610392578063965288b0146103c25780639adce32b146103e0576101a6565b806331ab0518116101645780634e1273f41161013e5780634e1273f4146102f65780634ef4e6f5146103265780636c68ad25146103425780637f28d1fe14610376576101a6565b806331ab0518146102a257806336568abe146102be5780633b1ad05d146102da576101a6565b8062fdd58e146101aa57806301ffc9a7146101da5780630e89341c1461020a578063248a9ca31461023a5780632eb2c2d61461026a5780632f2ff15d14610286575b5f80fd5b6101c460048036038101906101bf9190612114565b61054c565b6040516101d19190612161565b60405180910390f35b6101f460048036038101906101ef91906121cf565b6105a1565b6040516102019190612214565b60405180910390f35b610224600480360381019061021f919061222d565b6105b2565b60405161023191906122e2565b60405180910390f35b610254600480360381019061024f9190612335565b610644565b604051610261919061236f565b60405180910390f35b610284600480360381019061027f9190612578565b610661565b005b6102a0600480360381019061029b9190612643565b610708565b005b6102bc60048036038101906102b79190612681565b61072a565b005b6102d860048036038101906102d39190612643565b610765565b005b6102f460048036038101906102ef91906126ac565b6107e0565b005b610310600480360381019061030b91906127ff565b6108bd565b60405161031d919061292c565b60405180910390f35b610340600480360381019061033b9190612681565b6109ca565b005b61035c6004803603810190610357919061222d565b610a05565b60405161036d95949392919061294c565b60405180910390f35b610390600480360381019061038b9190612a49565b610b4f565b005b6103ac60048036038101906103a79190612643565b610c91565b6040516103b99190612214565b60405180910390f35b6103ca610cf5565b6040516103d7919061236f565b60405180910390f35b6103fa60048036038101906103f59190612681565b610d19565b005b610404610d54565b604051610411919061236f565b60405180910390f35b610434600480360381019061042f9190612b64565b610d5a565b005b61043e610d70565b60405161044b919061236f565b60405180910390f35b61046e60048036038101906104699190612bd8565b610d94565b005b61048a6004803603810190610485919061222d565b610e70565b005b6104a660048036038101906104a19190612643565b610eab565b005b6104c260048036038101906104bd9190612681565b610ecd565b005b6104de60048036038101906104d99190612c44565b610f08565b6040516104eb9190612214565b60405180910390f35b6104fc610f96565b604051610509919061236f565b60405180910390f35b61051a610fba565b604051610527919061236f565b60405180910390f35b61054a600480360381019061054591906126ac565b610fde565b005b5f805f8381526020019081526020015f205f8473ffffffffffffffffffffffffffffffffffffffff1673ffffffffffffffffffffffffffffffffffffffff1681526020019081526020015f2054905092915050565b5f6105ab82611085565b9050919050565b6060600280546105c190612caf565b80601f01602080910402602001604051908101604052809291908181526020018280546105ed90612caf565b80156106385780601f1061060f57610100808354040283529160200191610638565b820191905f5260205f20905b81548152906001019060200180831161061b57829003601f168201915b50505050509050919050565b5f60035f8381526020019081526020015f20600101549050919050565b5f61066a6110fe565b90508073ffffffffffffffffffffffffffffffffffffffff168673ffffffffffffffffffffffffffffffffffffffff16141580156106af57506106ad8682610f08565b155b156106f35780866040517fe237d9220000000000000000000000000000000000000000000000000000000081526004016106ea929190612cee565b60405180910390fd5b6107008686868686611105565b505050505050565b61071182610644565b61071a816111f9565b610724838361120d565b50505050565b5f801b610736816111f9565b6107607ffbd454f36a7e1a388bd6fc3ab10d434aa4578f811acbbcf33afb1c697486313c8361120d565b505050565b61076d6110fe565b73ffffffffffffffffffffffffffffffffffffffff168173ffffffffffffffffffffffffffffffffffffffff16146107d1576040517f6697b23200000000000000000000000000000000000000000000000000000000815260040160405180910390fd5b6107db82826112f7565b505050565b60045f8481526020019081526020015f206004015f9054906101000a900460ff1615610841576040517f08c379a000000000000000000000000000000000000000000000000000000000815260040161083890612d85565b60405180910390fd5b61084e8585858585610fde565b8373ffffffffffffffffffffffffffffffffffffffff168573ffffffffffffffffffffffffffffffffffffffff16847f8edd0c555199aa74c8154e4da09f342301bb3c400853ac4af8064fa61cb7e6ab85426040516108ae929190612da3565b60405180910390a45050505050565b6060815183511461090957815183516040517f5b059991000000000000000000000000000000000000000000000000000000008152600401610900929190612da3565b60405180910390fd5b5f835167ffffffffffffffff8111156109255761092461238c565b5b6040519080825280602002602001820160405280156109535781602001602082028036833780820191505090505b5090505f5b84518110156109bf5761098f61097782876113e190919063ffffffff16565b61098a83876113f490919063ffffffff16565b61054c565b8282815181106109a2576109a1612dca565b5b602002602001018181525050806109b890612e24565b9050610958565b508091505092915050565b5f801b6109d6816111f9565b610a007f2f3a5455f35aeca177ac653592f277fbe2fbafef01081a2030451bb2fb41c91d8361120d565b505050565b6004602052805f5260405f205f91509050805f018054610a2490612caf565b80601f0160208091040260200160405190810160405280929190818152602001828054610a5090612caf565b8015610a9b5780601f10610a7257610100808354040283529160200191610a9b565b820191905f5260205f20905b815481529060010190602001808311610a7e57829003601f168201915b505050505090806001018054610ab090612caf565b80601f0160208091040260200160405190810160405280929190818152602001828054610adc90612caf565b8015610b275780601f10610afe57610100808354040283529160200191610b27565b820191905f5260205f20905b815481529060010190602001808311610b0a57829003601f168201915b505050505090806002015490806003015490806004015f9054906101000a900460ff16905085565b7feefb95e842a3287179d933b4460be539a1d5af11aa8b325bb45c5c8dc92de4ed610b79816111f9565b610b8588888885611407565b6040518060a001604052808681526020018581526020014281526020018481526020015f151581525060045f8981526020019081526020015f205f820151815f019081610bd29190613008565b506020820151816001019081610be89190613008565b5060408201518160020155606082015181600301556080820151816004015f6101000a81548160ff0219169083151502179055509050508773ffffffffffffffffffffffffffffffffffffffff165f73ffffffffffffffffffffffffffffffffffffffff16887f8edd0c555199aa74c8154e4da09f342301bb3c400853ac4af8064fa61cb7e6ab8942604051610c7f929190612da3565b60405180910390a45050505050505050565b5f60035f8481526020019081526020015f205f015f8373ffffffffffffffffffffffffffffffffffffffff1673ffffffffffffffffffffffffffffffffffffffff1681526020019081526020015f205f9054906101000a900460ff16905092915050565b7feefb95e842a3287179d933b4460be539a1d5af11aa8b325bb45c5c8dc92de4ed81565b5f801b610d25816111f9565b610d4f7feefb95e842a3287179d933b4460be539a1d5af11aa8b325bb45c5c8dc92de4ed8361120d565b505050565b5f801b81565b610d6c610d656110fe565b838361149c565b5050565b7f482648e7878e9fa54c0a2f67ffd22d00ebc37cf7a03e060e428d2ab0cd6735cc81565b7f482648e7878e9fa54c0a2f67ffd22d00ebc37cf7a03e060e428d2ab0cd6735cc610dbe816111f9565b604b8260ff1611610e04576040517f08c379a0000000000000000000000000000000000000000000000000000000008152600401610dfb90613147565b60405180910390fd5b600160045f8681526020019081526020015f206004015f6101000a81548160ff021916908315150217905550837f1e94a4f19090af725d6c869bf47b8f310a924e9a4deb491efd349e2a24b428178484604051610e62929190613174565b60405180910390a250505050565b5f801b610e7c816111f9565b5f60045f8481526020019081526020015f206004015f6101000a81548160ff0219169083151502179055505050565b610eb482610644565b610ebd816111f9565b610ec783836112f7565b50505050565b5f801b610ed9816111f9565b610f037f482648e7878e9fa54c0a2f67ffd22d00ebc37cf7a03e060e428d2ab0cd6735cc8361120d565b505050565b5f60015f8473ffffffffffffffffffffffffffffffffffffffff1673ffffffffffffffffffffffffffffffffffffffff1681526020019081526020015f205f8373ffffffffffffffffffffffffffffffffffffffff1673ffffffffffffffffffffffffffffffffffffffff1681526020019081526020015f205f9054906101000a900460ff16905092915050565b7ffbd454f36a7e1a388bd6fc3ab10d434aa4578f811acbbcf33afb1c697486313c81565b7f2f3a5455f35aeca177ac653592f277fbe2fbafef01081a2030451bb2fb41c91d81565b5f610fe76110fe565b90508073ffffffffffffffffffffffffffffffffffffffff168673ffffffffffffffffffffffffffffffffffffffff161415801561102c575061102a8682610f08565b155b156110705780866040517fe237d922000000000000000000000000000000000000000000000000000000008152600401611067929190612cee565b60405180910390fd5b61107d8686868686611605565b505050505050565b5f7f7965db0b000000000000000000000000000000000000000000000000000000007bffffffffffffffffffffffffffffffffffffffffffffffffffffffff1916827bffffffffffffffffffffffffffffffffffffffffffffffffffffffff191614806110f757506110f68261170b565b5b9050919050565b5f33905090565b5f73ffffffffffffffffffffffffffffffffffffffff168473ffffffffffffffffffffffffffffffffffffffff1603611175575f6040517f57f447ce00000000000000000000000000000000000000000000000000000000815260040161116c91906131a2565b60405180910390fd5b5f73ffffffffffffffffffffffffffffffffffffffff168573ffffffffffffffffffffffffffffffffffffffff16036111e5575f6040517f01a835140000000000000000000000000000000000000000000000000000000081526004016111dc91906131a2565b60405180910390fd5b6111f285858585856117ec565b5050505050565b61120a816112056110fe565b611898565b50565b5f6112188383610c91565b6112ed57600160035f8581526020019081526020015f205f015f8473ffffffffffffffffffffffffffffffffffffffff1673ffffffffffffffffffffffffffffffffffffffff1681526020019081526020015f205f6101000a81548160ff02191690831515021790555061128a6110fe565b73ffffffffffffffffffffffffffffffffffffffff168273ffffffffffffffffffffffffffffffffffffffff16847f2f8788117e7eff1d82e926ec794901d17c78024a50270940304540a733656f0d60405160405180910390a4600190506112f1565b5f90505b92915050565b5f6113028383610c91565b156113d7575f60035f8581526020019081526020015f205f015f8473ffffffffffffffffffffffffffffffffffffffff1673ffffffffffffffffffffffffffffffffffffffff1681526020019081526020015f205f6101000a81548160ff0219169083151502179055506113746110fe565b73ffffffffffffffffffffffffffffffffffffffff168273ffffffffffffffffffffffffffffffffffffffff16847ff6391f5c32d9c69d2a47ea670b442974b53935d1edc7fd64eb21e047a839171b60405160405180910390a4600190506113db565b5f90505b92915050565b5f60208202602084010151905092915050565b5f60208202602084010151905092915050565b5f73ffffffffffffffffffffffffffffffffffffffff168473ffffffffffffffffffffffffffffffffffffffff1603611477575f6040517f57f447ce00000000000000000000000000000000000000000000000000000000815260040161146e91906131a2565b60405180910390fd5b5f8061148385856118e9565b915091506114945f878484876117ec565b505050505050565b5f73ffffffffffffffffffffffffffffffffffffffff168273ffffffffffffffffffffffffffffffffffffffff160361150c575f6040517fced3e10000000000000000000000000000000000000000000000000000000000815260040161150391906131a2565b60405180910390fd5b8060015f8573ffffffffffffffffffffffffffffffffffffffff1673ffffffffffffffffffffffffffffffffffffffff1681526020019081526020015f205f8473ffffffffffffffffffffffffffffffffffffffff1673ffffffffffffffffffffffffffffffffffffffff1681526020019081526020015f205f6101000a81548160ff0219169083151502179055508173ffffffffffffffffffffffffffffffffffffffff168373ffffffffffffffffffffffffffffffffffffffff167f17307eab39ab6107e8899845ad3d59bd9653f200f220920489ca2b5937696c31836040516115f89190612214565b60405180910390a3505050565b5f73ffffffffffffffffffffffffffffffffffffffff168473ffffffffffffffffffffffffffffffffffffffff1603611675575f6040517f57f447ce00000000000000000000000000000000000000000000000000000000815260040161166c91906131a2565b60405180910390fd5b5f73ffffffffffffffffffffffffffffffffffffffff168573ffffffffffffffffffffffffffffffffffffffff16036116e5575f6040517f01a835140000000000000000000000000000000000000000000000000000000081526004016116dc91906131a2565b60405180910390fd5b5f806116f185856118e9565b9150915061170287878484876117ec565b50505050505050565b5f7fd9b67a26000000000000000000000000000000000000000000000000000000007bffffffffffffffffffffffffffffffffffffffffffffffffffffffff1916827bffffffffffffffffffffffffffffffffffffffffffffffffffffffff191614806117d557507f0e89341c000000000000000000000000000000000000000000000000000000007bffffffffffffffffffffffffffffffffffffffffffffffffffffffff1916827bffffffffffffffffffffffffffffffffffffffffffffffffffffffff1916145b806117e557506117e482611919565b5b9050919050565b6117f885858585611982565b5f73ffffffffffffffffffffffffffffffffffffffff168473ffffffffffffffffffffffffffffffffffffffff1614611891575f6118346110fe565b90506001845103611880575f6118535f866113f490919063ffffffff16565b90505f6118695f866113f490919063ffffffff16565b9050611879838989858589611d18565b505061188f565b61188e818787878787611ec7565b5b505b5050505050565b6118a28282610c91565b6118e55780826040517fe2517d3f0000000000000000000000000000000000000000000000000000000081526004016118dc9291906131bb565b60405180910390fd5b5050565b60608060405191506001825283602083015260408201905060018152826020820152604081016040529250929050565b5f7f01ffc9a7000000000000000000000000000000000000000000000000000000007bffffffffffffffffffffffffffffffffffffffffffffffffffffffff1916827bffffffffffffffffffffffffffffffffffffffffffffffffffffffff1916149050919050565b80518251146119cc57815181516040517f5b0599910000000000000000000000000000000000000000000000000000000081526004016119c3929190612da3565b60405180910390fd5b5f6119d56110fe565b90505f5b8351811015611bd7575f6119f682866113f490919063ffffffff16565b90505f611a0c83866113f490919063ffffffff16565b90505f73ffffffffffffffffffffffffffffffffffffffff168873ffffffffffffffffffffffffffffffffffffffff1614611b2f575f805f8481526020019081526020015f205f8a73ffffffffffffffffffffffffffffffffffffffff1673ffffffffffffffffffffffffffffffffffffffff1681526020019081526020015f2054905081811015611adb57888183856040517f03dee4c5000000000000000000000000000000000000000000000000000000008152600401611ad294939291906131e2565b60405180910390fd5b8181035f808581526020019081526020015f205f8b73ffffffffffffffffffffffffffffffffffffffff1673ffffffffffffffffffffffffffffffffffffffff1681526020019081526020015f2081905550505b5f73ffffffffffffffffffffffffffffffffffffffff168773ffffffffffffffffffffffffffffffffffffffff1614611bc457805f808481526020019081526020015f205f8973ffffffffffffffffffffffffffffffffffffffff1673ffffffffffffffffffffffffffffffffffffffff1681526020019081526020015f205f828254611bbc9190613225565b925050819055505b505080611bd090612e24565b90506119d9565b506001835103611c92575f611bf55f856113f490919063ffffffff16565b90505f611c0b5f856113f490919063ffffffff16565b90508573ffffffffffffffffffffffffffffffffffffffff168773ffffffffffffffffffffffffffffffffffffffff168473ffffffffffffffffffffffffffffffffffffffff167fc3d58168c5ae7397731d063d5bbf3d657854427343f4c083240f7aacaa2d0f628585604051611c83929190612da3565b60405180910390a45050611d11565b8373ffffffffffffffffffffffffffffffffffffffff168573ffffffffffffffffffffffffffffffffffffffff168273ffffffffffffffffffffffffffffffffffffffff167f4a39dc06d4c0dbc64b70af90fd698a233a518aa5d07e595d983b8c0526c8f7fb8686604051611d08929190613258565b60405180910390a45b5050505050565b5f8473ffffffffffffffffffffffffffffffffffffffff163b1115611ebf578373ffffffffffffffffffffffffffffffffffffffff1663f23a6e6187878686866040518663ffffffff1660e01b8152600401611d789594939291906132df565b6020604051808303815f875af1925050508015611db357506040513d601f19601f82011682018060405250810190611db0919061334b565b60015b611e34573d805f8114611de1576040519150601f19603f3d011682016040523d82523d5f602084013e611de6565b606091505b505f815103611e2c57846040517f57f447ce000000000000000000000000000000000000000000000000000000008152600401611e2391906131a2565b60405180910390fd5b805181602001fd5b63f23a6e6160e01b7bffffffffffffffffffffffffffffffffffffffffffffffffffffffff1916817bffffffffffffffffffffffffffffffffffffffffffffffffffffffff191614611ebd57846040517f57f447ce000000000000000000000000000000000000000000000000000000008152600401611eb491906131a2565b60405180910390fd5b505b505050505050565b5f8473ffffffffffffffffffffffffffffffffffffffff163b111561206e578373ffffffffffffffffffffffffffffffffffffffff1663bc197c8187878686866040518663ffffffff1660e01b8152600401611f27959493929190613376565b6020604051808303815f875af1925050508015611f6257506040513d601f19601f82011682018060405250810190611f5f919061334b565b60015b611fe3573d805f8114611f90576040519150601f19603f3d011682016040523d82523d5f602084013e611f95565b606091505b505f815103611fdb57846040517f57f447ce000000000000000000000000000000000000000000000000000000008152600401611fd291906131a2565b60405180910390fd5b805181602001fd5b63bc197c8160e01b7bffffffffffffffffffffffffffffffffffffffffffffffffffffffff1916817bffffffffffffffffffffffffffffffffffffffffffffffffffffffff19161461206c57846040517f57f447ce00000000000000000000000000000000000000000000000000000000815260040161206391906131a2565b60405180910390fd5b505b505050505050565b5f604051905090565b5f80fd5b5f80fd5b5f73ffffffffffffffffffffffffffffffffffffffff82169050919050565b5f6120b082612087565b9050919050565b6120c0816120a6565b81146120ca575f80fd5b50565b5f813590506120db816120b7565b92915050565b5f819050919050565b6120f3816120e1565b81146120fd575f80fd5b50565b5f8135905061210e816120ea565b92915050565b5f806040838503121561212a5761212961207f565b5b5f612137858286016120cd565b925050602061214885828601612100565b9150509250929050565b61215b816120e1565b82525050565b5f6020820190506121745f830184612152565b92915050565b5f7fffffffff0000000000000000000000000000000000000000000000000000000082169050919050565b6121ae8161217a565b81146121b8575f80fd5b50565b5f813590506121c9816121a5565b92915050565b5f602082840312156121e4576121e361207f565b5b5f6121f1848285016121bb565b91505092915050565b5f8115159050919050565b61220e816121fa565b82525050565b5f6020820190506122275f830184612205565b92915050565b5f602082840312156122425761224161207f565b5b5f61224f84828501612100565b91505092915050565b5f81519050919050565b5f82825260208201905092915050565b5f5b8381101561228f578082015181840152602081019050612274565b5f8484015250505050565b5f601f19601f8301169050919050565b5f6122b482612258565b6122be8185612262565b93506122ce818560208601612272565b6122d78161229a565b840191505092915050565b5f6020820190508181035f8301526122fa81846122aa565b905092915050565b5f819050919050565b61231481612302565b811461231e575f80fd5b50565b5f8135905061232f8161230b565b92915050565b5f6020828403121561234a5761234961207f565b5b5f61235784828501612321565b91505092915050565b61236981612302565b82525050565b5f6020820190506123825f830184612360565b92915050565b5f80fd5b7f4e487b71000000000000000000000000000000000000000000000000000000005f52604160045260245ffd5b6123c28261229a565b810181811067ffffffffffffffff821117156123e1576123e061238c565b5b80604052505050565b5f6123f3612076565b90506123ff82826123b9565b919050565b5f67ffffffffffffffff82111561241e5761241d61238c565b5b602082029050602081019050919050565b5f80fd5b5f61244561244084612404565b6123ea565b905080838252602082019050602084028301858111156124685761246761242f565b5b835b81811015612491578061247d8882612100565b84526020840193505060208101905061246a565b5050509392505050565b5f82601f8301126124af576124ae612388565b5b81356124bf848260208601612433565b91505092915050565b5f80fd5b5f67ffffffffffffffff8211156124e6576124e561238c565b5b6124ef8261229a565b9050602081019050919050565b828183375f83830152505050565b5f61251c612517846124cc565b6123ea565b905082815260208101848484011115612538576125376124c8565b5b6125438482856124fc565b509392505050565b5f82601f83011261255f5761255e612388565b5b813561256f84826020860161250a565b91505092915050565b5f805f805f60a086880312156125915761259061207f565b5b5f61259e888289016120cd565b95505060206125af888289016120cd565b945050604086013567ffffffffffffffff8111156125d0576125cf612083565b5b6125dc8882890161249b565b935050606086013567ffffffffffffffff8111156125fd576125fc612083565b5b6126098882890161249b565b925050608086013567ffffffffffffffff81111561262a57612629612083565b5b6126368882890161254b565b9150509295509295909350565b5f80604083850312156126595761265861207f565b5b5f61266685828601612321565b9250506020612677858286016120cd565b9150509250929050565b5f602082840312156126965761269561207f565b5b5f6126a3848285016120cd565b91505092915050565b5f805f805f60a086880312156126c5576126c461207f565b5b5f6126d2888289016120cd565b95505060206126e3888289016120cd565b94505060406126f488828901612100565b935050606061270588828901612100565b925050608086013567ffffffffffffffff81111561272657612725612083565b5b6127328882890161254b565b9150509295509295909350565b5f67ffffffffffffffff8211156127595761275861238c565b5b602082029050602081019050919050565b5f61277c6127778461273f565b6123ea565b9050808382526020820190506020840283018581111561279f5761279e61242f565b5b835b818110156127c857806127b488826120cd565b8452602084019350506020810190506127a1565b5050509392505050565b5f82601f8301126127e6576127e5612388565b5b81356127f684826020860161276a565b91505092915050565b5f80604083850312156128155761281461207f565b5b5f83013567ffffffffffffffff81111561283257612831612083565b5b61283e858286016127d2565b925050602083013567ffffffffffffffff81111561285f5761285e612083565b5b61286b8582860161249b565b9150509250929050565b5f81519050919050565b5f82825260208201905092915050565b5f819050602082019050919050565b6128a7816120e1565b82525050565b5f6128b8838361289e565b60208301905092915050565b5f602082019050919050565b5f6128da82612875565b6128e4818561287f565b93506128ef8361288f565b805f5b8381101561291f57815161290688826128ad565b9750612911836128c4565b9250506001810190506128f2565b5085935050505092915050565b5f6020820190508181035f83015261294481846128d0565b905092915050565b5f60a0820190508181035f83015261296481886122aa565b9050818103602083015261297881876122aa565b90506129876040830186612152565b6129946060830185612152565b6129a16080830184612205565b9695505050505050565b5f67ffffffffffffffff8211156129c5576129c461238c565b5b6129ce8261229a565b9050602081019050919050565b5f6129ed6129e8846129ab565b6123ea565b905082815260208101848484011115612a0957612a086124c8565b5b612a148482856124fc565b509392505050565b5f82601f830112612a3057612a2f612388565b5b8135612a408482602086016129db565b91505092915050565b5f805f805f805f60e0888a031215612a6457612a6361207f565b5b5f612a718a828b016120cd565b9750506020612a828a828b01612100565b9650506040612a938a828b01612100565b955050606088013567ffffffffffffffff811115612ab457612ab3612083565b5b612ac08a828b01612a1c565b945050608088013567ffffffffffffffff811115612ae157612ae0612083565b5b612aed8a828b01612a1c565b93505060a0612afe8a828b01612100565b92505060c088013567ffffffffffffffff811115612b1f57612b1e612083565b5b612b2b8a828b0161254b565b91505092959891949750929550565b612b43816121fa565b8114612b4d575f80fd5b50565b5f81359050612b5e81612b3a565b92915050565b5f8060408385031215612b7a57612b7961207f565b5b5f612b87858286016120cd565b9250506020612b9885828601612b50565b9150509250929050565b5f60ff82169050919050565b612bb781612ba2565b8114612bc1575f80fd5b50565b5f81359050612bd281612bae565b92915050565b5f805f60608486031215612bef57612bee61207f565b5b5f612bfc86828701612100565b935050602084013567ffffffffffffffff811115612c1d57612c1c612083565b5b612c2986828701612a1c565b9250506040612c3a86828701612bc4565b9150509250925092565b5f8060408385031215612c5a57612c5961207f565b5b5f612c67858286016120cd565b9250506020612c78858286016120cd565b9150509250929050565b7f4e487b71000000000000000000000000000000000000000000000000000000005f52602260045260245ffd5b5f6002820490506001821680612cc657607f821691505b602082108103612cd957612cd8612c82565b5b50919050565b612ce8816120a6565b82525050565b5f604082019050612d015f830185612cdf565b612d0e6020830184612cdf565b9392505050565b7f506861726d6147756172643a204275207572756e2068696c652f7361687465635f8201527f696c696b2073757068657369796c6520646f6e647572756c6d75737475722e00602082015250565b5f612d6f603f83612262565b9150612d7a82612d15565b604082019050919050565b5f6020820190508181035f830152612d9c81612d63565b9050919050565b5f604082019050612db65f830185612152565b612dc36020830184612152565b9392505050565b7f4e487b71000000000000000000000000000000000000000000000000000000005f52603260045260245ffd5b7f4e487b71000000000000000000000000000000000000000000000000000000005f52601160045260245ffd5b5f612e2e826120e1565b91507fffffffffffffffffffffffffffffffffffffffffffffffffffffffffffffffff8203612e6057612e5f612df7565b5b600182019050919050565b5f819050815f5260205f209050919050565b5f6020601f8301049050919050565b5f82821b905092915050565b5f60088302612ec77fffffffffffffffffffffffffffffffffffffffffffffffffffffffffffffffff82612e8c565b612ed18683612e8c565b95508019841693508086168417925050509392505050565b5f819050919050565b5f612f0c612f07612f02846120e1565b612ee9565b6120e1565b9050919050565b5f819050919050565b612f2583612ef2565b612f39612f3182612f13565b848454612e98565b825550505050565b5f90565b612f4d612f41565b612f58818484612f1c565b505050565b5b81811015612f7b57612f705f82612f45565b600181019050612f5e565b5050565b601f821115612fc057612f9181612e6b565b612f9a84612e7d565b81016020851015612fa9578190505b612fbd612fb585612e7d565b830182612f5d565b50505b505050565b5f82821c905092915050565b5f612fe05f1984600802612fc5565b1980831691505092915050565b5f612ff88383612fd1565b9150826002028217905092915050565b61301182612258565b67ffffffffffffffff81111561302a5761302961238c565b5b6130348254612caf565b61303f828285612f7f565b5f60209050601f831160018114613070575f841561305e578287015190505b6130688582612fed565b8655506130cf565b601f19841661307e86612e6b565b5f5b828110156130a557848901518255600182019150602085019450602081019050613080565b868310156130c257848901516130be601f891682612fd1565b8355505b6001600288020188555050505b505050505050565b7f506861726d6147756172643a205269736b20736b6f727520646f6e6475726d615f8201527f2069736c656d69206963696e20796574657273697a2e00000000000000000000602082015250565b5f613131603683612262565b915061313c826130d7565b604082019050919050565b5f6020820190508181035f83015261315e81613125565b9050919050565b61316e81612ba2565b82525050565b5f6040820190508181035f83015261318c81856122aa565b905061319b6020830184613165565b9392505050565b5f6020820190506131b55f830184612cdf565b92915050565b5f6040820190506131ce5f830185612cdf565b6131db6020830184612360565b9392505050565b5f6080820190506131f55f830187612cdf565b6132026020830186612152565b61320f6040830185612152565b61321c6060830184612152565b95945050505050565b5f61322f826120e1565b915061323a836120e1565b925082820190508082111561325257613251612df7565b5b92915050565b5f6040820190508181035f83015261327081856128d0565b9050818103602083015261328481846128d0565b90509392505050565b5f81519050919050565b5f82825260208201905092915050565b5f6132b18261328d565b6132bb8185613297565b93506132cb818560208601612272565b6132d48161229a565b840191505092915050565b5f60a0820190506132f25f830188612cdf565b6132ff6020830187612cdf565b61330c6040830186612152565b6133196060830185612152565b818103608083015261332b81846132a7565b90509695505050505050565b5f81519050613345816121a5565b92915050565b5f602082840312156133605761335f61207f565b5b5f61336d84828501613337565b91505092915050565b5f60a0820190506133895f830188612cdf565b6133966020830187612cdf565b81810360408301526133a881866128d0565b905081810360608301526133bc81856128d0565b905081810360808301526133d081846132a7565b9050969550505050505056fea26469706673582212208b2bfeec837d896abb9a3e76b214527dbf98dcaf4018f8cbc080e39efb6e0fce64736f6c63430008140033","linkReferences":{}},"methodIdentifiers":{"AI_ORACLE_ROLE()":"c601f7af","DEFAULT_ADMIN_ROLE()":"a217fddf","DISTRIBUTOR_ROLE()":"f0bd87cc","MANUFACTURER_ROLE()":"965288b0","PHARMACY_ROLE()":"f0c58ea7","balanceOf(address,uint256)":"00fdd58e","balanceOfBatch(address[],uint256[])":"4e1273f4","flagAndFreezeProduct(uint256,string,uint8)":"c968d8d5","getRoleAdmin(bytes32)":"248a9ca3","grantRole(bytes32,address)":"2f2ff15d","hasRole(bytes32,address)":"91d14854","isApprovedForAll(address,address)":"e985e9c5","itemRegistry(uint256)":"6c68ad25","mintProduct(address,uint256,uint256,string,string,uint256,bytes)":"7f28d1fe","registerAIOracle(address)":"e6831f92","registerDistributor(address)":"31ab0518","registerManufacturer(address)":"9adce32b","registerPharmacy(address)":"4ef4e6f5","renounceRole(bytes32,address)":"36568abe","revokeRole(bytes32,address)":"d547741f","safeBatchTransferFrom(address,address,uint256[],uint256[],bytes)":"2eb2c2d6","safeTransferFrom(address,address,uint256,uint256,bytes)":"f242432a","safeTransferItem(address,address,uint256,uint256,bytes)":"3b1ad05d","setApprovalForAll(address,bool)":"a22cb465","supportsInterface(bytes4)":"01ffc9a7","unfreezeProduct(uint256)":"d52e0027","uri(uint256)":"0e89341c"},"id":35}